:100000000C94FE000C941B010C941B010C941B011E
:100010000C941B010C9458010C941B010C941B01B3
:100020000C941B010C941B010C9494030C941B0165
:100030000C941B010C940F040C941B010C941B01D9
:100040000C94E40F0C941B010C941B010C941B01E9
:100050000C94230F0C94E10E0C941B010C941B01C7
:100060000C941B010C941B010C941B010C941B01A0
:100070000C941B010C941B010C941B0157050A05E1
:100080000A050A0557052A052A054A05CF06D2069C
:10009000D206D206CF06D606D606DA064C657665B7
:1000A0006C3A20253264004C6976653A202532642A
:1000B0000053636F72653A20253464005072657393
:1000C00073206120627574746F6E20746F20737476
:1000D00061727420616761696E0047414D45204F30
:1000E0005645520043535345323031302F3732306A
:1000F000312070726F6A65637420627920567520B2
:10010000416E68204C450046726F67676572007AE1
:1001100001770173016F016B01670163015F015B8F
:10012000015701E901E501E101DD01D901D501D165
:1001300001CD01CA01C601C201BE01B901B501B1BB
:1001400001AD01A801A401A0019B01970192018DBD
:1001500001880183017E016492927D6C92926D8090
:100160009EA0C17C92924DE4A2A29D182848FF4413
:1001700092926D468A926342FE037C92A27D868AA9
:1001800092A2C3E0100E10E1C6281028C7FC021C82
:1001900002FDF8040204F9FC0202FD8080FE808169
:1001A0006492924DFE9098677C828A7C03FE9090C8
:1001B000617C82827DFE2010FFFE403040FFFE0207
:1001C0000203FE1028C7040202FD82FE83FE101007
:1001D000FF7C82925DFE909081FE929283FE8282ED
:1001E0007D7C828245FE92926D7E90907F1B5B3279
:1001F0004A001B5B25643B256448000011241FBE98
:10020000CFEFD8E0DEBFCDBF11E0A0E0B1E0EEE679
:10021000F7E202C005900D92AC36B107D9F722E0A3
:10022000ACE6B1E001C01D92AA3BB207E1F70E9423
:10023000250D0C94B5130C940000E8E6F0E08081E5
:1002400082608083D99AECE6F0E080818F608083C1
:1002500010926C01089580916C0118163CF5809104
:100260006D016FB7F89490916C019230B4F021E079
:1002700030E091E0F901E359FE4F4081F901E45982
:10028000FE4F40839F5F292F30E040916C01042E88
:10029000000C550B241735076CF390916C019150AD
:1002A00090936C0166231CF4789408958FEF089561
:1002B0001F920F920FB60F9211242F933F934F93DB
:1002C0005F936F937F938F939F93EF93FF9343B1CC
:1002D0004F7080E090E0642F70E020916C0124303A
:1002E00004F59B01082E02C0359527950A94E2F784
:1002F00020FF17C02091710130E0082E02C0359513
:1003000027950A94E2F720FD0CC0E0916C0121E0F2
:100310002E0F20936C010E2E000CFF0BE359FE4FA5
:100320008083019684309105C1F640937101FF915D
:10033000EF919F918F917F916F915F914F913F913D
:100340002F910F900FBE0F901F901895789486E410
:1003500080937C00EAE7F0E086E880838081806417
:1003600080830895ECE7F0E0808181608083EAE794
:10037000F0E0808180648083808186FDFDCF809164
:100380007800909179008130934060F4209178005A
:100390003091790081E02F3F310511F008F080E0C5
:1003A0008195089581E00895ECE7F0E080818E7FEB
:1003B0008083EAE7F0E0808180648083808186FD2D
:1003C000FDCF80917800909179008130934060F466
:1003D000209178003091790081E02F3F310511F0B4
:1003E00008F080E08195089581E0089580E48AB95D
:1003F0008FEF8093B3001092B40083E28093B0003B
:1004000088E08093B10084E0809370007894089530
:100410001092920110929301109294011092950102
:10042000049B05C0E1EBF0E0808187608083089544
:100430008093B300039B05C0969587958093B40085
:1004400003C081E08093B400CB01A0E0B0E08093D2
:100450008E0190938F01A0939001B09391010E941F
:100460000802089564E170E084E190E00E941802BF
:10047000089568E270E08CE390E00E94180208950D
:10048000E1EBF0E08081887F808308956CE870E084
:1004900084E090E00E9418022FEF80E792E0215064
:1004A00080409040E1F700C000000E9440022FE72A
:1004B00088E391E0215080409040E1F700C00000C7
:1004C0006CE870E084E090E00E9418022FEF80E773
:1004D00092E0215080409040E1F700C000000E946F
:1004E00040022FE788E391E0215080409040E1F7FF
:1004F00000C000006CE870E083E090E00E94180209
:100500002FEF80E792E0215080409040E1F700C05B
:1005100000000E9440022FE788E391E021508040D4
:100520009040E1F700C000006CE870E082E090E0ED
:100530000E9418022FEF81EE94E0215080409040FD
:10054000E1F700C000000E9440022FEF80E792E038
:10055000215080409040E1F700C000006CE870E05E
:1005600084E090E00E9418022FE788E391E0215098
:1005700080409040E1F700C000000E9440022FE759
:1005800088E391E0215080409040E1F700C00000F6
:100590006CE870E083E090E00E9418022FE788E3A7
:1005A00091E0215080409040E1F700C000000E949F
:1005B00040022FE788E391E0215080409040E1F72E
:1005C00000C000006CE870E082E090E00E94180239
:1005D0002FEF81EE94E0215080409040E1F700C081
:1005E000000008956CE870E084E090E00E9418023A
:1005F0002FE788E391E0215080409040E1F700C070
:1006000000000E9440022FE788E391E021508040E3
:100610009040E1F700C000006CE870E083E090E0FB
:100620000E9418022FE788E391E02150804090401B
:10063000E1F700C000000E9440022FE788E391E04C
:10064000215080409040E1F700C000006CE870E06D
:1006500082E090E00E9418022FEF81EE94E021509A
:1006600080409040E1F700C0000008956CE870E021
:1006700084E190E00E9418022FEF81EE94E0215077
:1006800080409040E1F700C000000E9440022FE748
:1006900088E391E0215080409040E1F700C00000E5
:1006A0006CE870E08EE190E00E9418022FEF81EE7E
:1006B00094E0215080409040E1F700C000000E948B
:1006C00040022FE788E391E0215080409040E1F71D
:1006D00000C000006CE870E088E290E00E94180220
:1006E0002FEF81EE94E0215080409040E1F700C070
:1006F00000000E9440022FE788E391E021508040F3
:100700009040E1F700C000006CE870E08CE390E0FE
:100710000E9418022FEF83EC99E021508040904016
:10072000E1F700C0000008951F920F920FB60F92DC
:1007300011242F933F934F935F936F937F938F93E6
:100740009F93AF93BF93EF93FF938091920190910A
:100750009301A0919401B09195010196A11DB11D45
:100760008093920190939301A0939401B09395018B
:1007700040918E0150918F01609190017091910193
:10078000481759076A077B0710F40E944002FF913F
:10079000EF91BF91AF919F918F917F916F915F91F9
:1007A0004F913F912F910F900FBE0F901F90189572
:1007B0008FEF87B90D9A8FE097E29093890080932D
:1007C0008800109280008AE08093810082E080930C
:1007D0006F0086BB78940895019644E6489F900187
:1007E000499F300D1124309373012093720181E0F1
:1007F0008093750110927401089591E08927809388
:100800007501089510927301109272011092750192
:1008100081E08093740108958091740108951F927E
:100820000F920FB60F9211242F933F934F935F9324
:100830006F937F938F939F93AF93BF93EF93FF93A8
:10084000809175018823A1F08091720190917301CC
:10085000019790937301809372018091720190913E
:100860007301892B29F41092750181E08093740142
:10087000059B5FC080917201909173018436910550
:1008800058F52091720130917301ADECBCEC0E94DF
:100890005010AC01569547955695479556954795F6
:1008A0009A010E94501096958795969587959695F2
:1008B00087959C01220F331F880F991F880F991F5E
:1008C000880F991F820F931F481B590BFA01E050A4
:1008D000FF4F808188B974C02091720130917301FB
:1008E0003695279536952795ABE7B4E10E945010D1
:1008F000AC01569547959A01ADECBCEC0E945010A6
:100900009695879596958795969587959C01220F44
:10091000331F880F991F880F991F880F991F820F07
:10092000931F481B590BFA01E050FF4F808188B993
:1009300047C080917201909173018436910528F42B
:1009400080910001806888B93BC0809172019091CC
:100950007301883E934010F418B832C020917201A0
:1009600030917301369527953695279536952795BD
:10097000A5ECB0E20E945010AC01529542954F7028
:1009800045275F7045279A01ADECBCEC0E945010E2
:100990009695879596958795969587959C01220FB4
:1009A000331F880F991F880F991F880F991F820F77
:1009B000931F481B590BFA01E050FF4F808188B903
:1009C00092B180E2892782B9FF91EF91BF91AF91F7
:1009D0009F918F917F916F915F914F913F912F9157
:1009E0000F900FBE0F901F9018950F93262F603118
:1009F00008F05BC0482F082E000C550B660B770BD8
:100A00004830510528F4FA01E25CFF4F0C944A107B
:100A100081E04EC08150E82FF0E0DF01A458BE4FC6
:100A20000C91020F003408F00054EE0FFF1FEE0F80
:100A3000FF1FEE0FFF1FE85CFE4F208131814281D6
:100A4000538164817581868197810E946110822F14
:100A500081702EC0855090E0FC01E658FE4F608109
:100A6000260F203208F02052880F991F880F991FF7
:100A7000FC01E05DFE4F80819181A281B38104C0C1
:100A8000B695A795979587952A95D2F721E0822765
:100A900081700EC0809176019091770102C0969589
:100AA00087952A95E2F7817003C081E001C080E05C
:100AB0000F910895CF93DF93CDB7DEB760970FB650
:100AC000F894DEBF0FBECDBFFE0131969E012F5EB2
:100AD0003F4F91E19193E217F307E1F7BE016F5F9A
:100AE0007F4F0E94800860960FB6F894DEBF0FBE5D
:100AF000CDBFDF91CF9108953F924F925F926F9259
:100B00007F928F929F92AF92BF92CF92DF92EF929D
:100B1000FF920F931F93CF93DF93CDB7DEB760970C
:100B20000FB6F894DEBF0FBECDBF482E282F30E0A1
:100B3000F901E458FE4FE081C901880F991F880F21
:100B4000991F880F991F885C9E4FDC015C9011965D
:100B50006C90119712967C90129713968C90139725
:100B600014969C90149715961C91159716963C9088
:100B700016971796FC91CE0101967C016E0191E1CA
:100B8000C90ED11CD901A65FBE4F5D01252D362DA2
:100B9000472D582D692D712F832D9F2F0E2F0E94C9
:100BA0006110217030E040E050E060E070E080E0F3
:100BB00090E0A0E00E947D1029F0D5018C91D70132
:100BC0008C9302C0D7011C92EF5FE03408F0E0E0A4
:100BD000BFEFEB1AFB0AEC14FD04C1F6BE016F5F18
:100BE0007F4F81E0840D0E94800860960FB6F894D4
:100BF000DEBF0FBECDBFDF91CF911F910F91FF9050
:100C0000EF90DF90CF90BF90AF909F908F907F90AC
:100C10006F905F904F903F900895CF92DF92EF9248
:100C2000FF92CF93DF93CDB7DEB760970FB6F894FE
:100C3000DEBF0FBECDBF282F30E0F901E658FE4FD2
:100C40009081220F331F220F331FF901E05DFE4F09
:100C5000C080D180E280F380FE0131969E012F5E3C
:100C60003F4FACE3B701A601092E04C07695679506
:100C7000579547950A94D2F740FF02C0A08301C060
:100C800010829F5F903208F090E03196E217F307F0
:100C900049F7BE016F5F7F4F8B5F0E9480086096AF
:100CA0000FB6F894DEBF0FBECDBFDF91CF91FF909E
:100CB000EF90DF90CF900895EF92FF920F931F93E4
:100CC000CF93DF93CDB7DEB760970FB6F894DEBF52
:100CD0000FBECDBFA0917801B0917901E09076016F
:100CE000F0907701AE014F5F5F4FBE016F5E7F4FA7
:100CF000FA0100EF11E1CF01841B950B9D01082E35
:100D000002C0369527950A94E2F720FF02C01083AF
:100D10000BC0970102C0369527958A95E2F720FF10
:100D200002C0008301C010823196E617F70719F759
:100D3000BE016F5F7F4F87E00E94800860960FB60C
:100D4000F894DEBF0FBECDBFDF91CF911F910F9101
:100D5000FF90EF9008950E94C10880E00E945A051C
:100D600084E00E945A0580E00E947C0581E00E9498
:100D70007C0582E00E947C0580E00E940D0681E0F7
:100D80000E940D060E945C060895482F50E04830EE
:100D9000510590F4FA01EA5BFF4F0C944A100E944F
:100DA0005A05089581500E947C05089585500E943F
:100DB0000D0608950E945C06089580917F018823A6
:100DC00041F045E360918101809180010E946108BA
:100DD000089540EF60918101809180010E94610837
:100DE00008951092810187E08093800110927F0125
:100DF0000E94AB060E94DD060895ECE7F1E0128246
:100E000011821082EAE7F1E0118210828FEF9DEFEC
:100E10009093790180937801909377018093760184
:100E20000E94AB060E94F1060895CF938091810144
:100E30000E94C506C0918101CF5F609180018C2F17
:100E40000E94F50480937F01C09381010E94DD061A
:100E500080917F01811123C081E090E00E94390DD3
:100E600080917F0181111BC0809181018730B9F48D
:100E700081E090E00090800102C0880F991F0A94E1
:100E8000E2F72091760130917701822B932B90939A
:100E90007701809376018AE090E00E94390DCF912E
:100EA0000895CF93DF93809181010E94C506C09180
:100EB0008101DFEFDC0F609180018D2F0E94F5042E
:100EC00080937F01C111D09381010E94DD06DF91E3
:100ED000CF910895CF93DF93809181010E94C50641
:100EE000C0918001DFEFDC0F6D2F809181010E94A6
:100EF000F50480937F01C111D09380010E94DD062B
:100F0000DF91CF910895CF93DF93809181010E946B
:100F1000C506C0918001D1E0DC0F6D2F8091810169
:100F20000E94F50480937F01CF3011F0D0938001AF
:100F30000E94DD06DF91CF91089581E02091760136
:100F4000309177012F3F3F4F09F080E0089581E015
:100F500090918101973009F080E0089580917F01A0
:100F6000089581E080937F010E94DD0608950F932C
:100F70001F93CF93DF93C09181010C2E000CDD0BEA
:100F8000282F30E089010F5F1F4FF901E458FE4F11
:100F90009081961B32F4F901E458FE4F9FE3908351
:100FA0000BC090342CF4F901E458FE4F908304C038
:100FB000F901E458FE4F10820E947C05C017D1074A
:100FC00051F460918001809181010E94F504809329
:100FD0007F010E94DD06DF91CF911F910F9108954F
:100FE0000F931F93CF93DF93C09181010C2E000CC0
:100FF000DD0B282F30E089010B5F1F4FC017D10791
:10100000C9F4613041F4909180019F3071F491E016
:1010100090937F010FC06F3F41F490918001911137
:1010200004C091E090937F0105C090918001960FDC
:1010300090938001F901E658FE4F9081961B32F49F
:10104000F901E658FE4F9FE190830BC090322CF4DB
:10105000F901E658FE4F908304C0F901E658FE4FAF
:1010600010820E940D06C017D10711F40E94DD0600
:10107000DF91CF911F910F910895E82FE770F0E075
:10108000EE0FFF1FE05EFE4F20813181309379012A
:10109000209378013093770120937601982F990F50
:1010A000990F990F981BECE7F1E09283918390835D
:1010B000EAE7F1E091839083089580E80E94760F3B
:1010C00008951F93CF93DF938031B0F46830A0F47C
:1010D000142FC62FD82F81E00E949E0F6C2F6770AF
:1010E00080E1689F900111248D2F8F70822B0E94C8
:1010F0009E0F812F0E949E0FDF91CF911F91089527
:101100000F931F93CF93DF93883090F48B01C82FF8
:1011100082E00E949E0F8C2F87700E949E0FE80134
:10112000005F1F4F89910E949E0FC017D107D1F712
:10113000DF91CF911F910F9108950F931F93CF933C
:10114000DF93803190F48B01C82F83E00E949E0FC3
:101150008C2F8F700E949E0FE801085F1F4F8991AE
:101160000E949E0FC017D107D1F7DF91CF911F9139
:101170000F91089584E00E949E0F82E00E949E0FCE
:1011800008958FE00E949E0F08950E945D080E94BE
:101190001D0140E060E07BE480E090E00E948E0E64
:1011A0000E94BE0F0E94D8030E94F6010E94A60171
:1011B00081B1876081B98FEF87B9559A7894089586
:1011C0000E94B50F6AE070E08AE090E00E94A40FF0
:1011D00087E091E09F938F930E94C7106CE070E0CE
:1011E0008AE090E00E94A40F84EE90E09F938F939A
:1011F0000E94C7100E94C1080F900F900F900F908F
:1012000060EF80E591E00E94570D0DC02FE789EA5D
:1012100093E0215080409040E1F700C000000E9420
:101220002B018F3F29F40E94660D8111EFCFE8CF8B
:1012300008950E9402046EE070E08AE090E00E944F
:10124000A40F8AED90E09F938F930E94C7106FE0E8
:1012500070E08AE090E00E94A40F8CEB90E09F93F6
:101260008F930E94C7100E9436032FEF84E39CE007
:10127000215080409040E1F700C000000F900F9097
:101280000F900F906CE381E691E00E94570D0DC026
:101290002FE789EA93E0215080409040E1F700C0B9
:1012A00000000E942B018F3F29F40E94660D8111DE
:1012B000EFCFE8CF08956CE070E08AE090E00E9404
:1012C000A40F0E944E0D9F938F937F936F9381EB9A
:1012D00090E09F938F930E94C7100F900F900F90F4
:1012E0000F900F900F9008956CE070E08EE190E009
:1012F0000E94A40F80919B011F928F9387EA90E038
:101300009F938F930E94C71082B1887F82B992B158
:10131000E0919B01F0E0E35FFE4F8081892B82B971
:101320000F900F900F900F9008956CE070E082E3A3
:1013300090E00E94A40F80919A0190E001969F9303
:101340008F938CE990E09F938F930E94C7100F902A
:101350000F900F900F9008950E94FD060E94B50F08
:101360000E94300D0E945B0983E080939B010E94E4
:10137000740910929A010E9495090E9446020E94E7
:101380002B010E94DC0E08952F923F924F925F92A4
:101390006F927F928F929F92AF92BF92CF92DF9285
:1013A000EF92FF920F931F93CF93DF93CDB7DEB7EA
:1013B00060970FB6F894DEBF0FBECDBF84E190E01A
:1013C0000E94EC031C86312C1A8619861B86412C40
:1013D000512C3201C12CD12C7601212CBCC20E948F
:1013E000A707882309F440C00E949D078823B1F114
:1013F0000E94F2022FEF34E34CE021503040404095
:10140000E1F700C0000010E10E94BA085FEB84ED34
:1014100091E0515080409040E1F700C00000115031
:1014200099F7AFEFB4E3ECE0A150B040E040E1F752
:1014300000C000000E94DC0E80919B01833028F4E4
:101440008F5F80939B010E94740980919A018F5F46
:1014500080939A010E943D080E9495090E94F1061E
:1014600084E190E00E94EC030E942B01182F8F3F33
:1014700009F07DC20E94D50E882309F45DC0A4EB5B
:10148000B2E08D919C910E948910BC85B11105C07C
:101490008B3109F466C29FEF0DC0EC85E13029F471
:1014A0008B3509F461C29FEF05C0FC85F23029F449
:1014B000982F8FEF943411F408C09FEF282F2F7DC1
:1014C0002C3409F082C22C8601C02C86311034C025
:1014D0000E946A070E9432022FC08F7D853559F421
:1014E00001C02C86311028C00E9415070E943202CC
:1014F0000E945B0921C0113021F0923411F0843434
:1015000039F4311019C00E9451070E94320214C0F0
:10151000112321F0933411F0823539F431100CC0CD
:101520000E9483070E94320207C0803529F421E01F
:101530003226832D0E94FD030E94D60F6D837E8389
:101540008F83988793B183B123B133B192FBAA24DF
:10155000A0F8B12C81FB882480F8912CC501882942
:101560009929317039831A8249815A81842B952BAC
:1015700023FB222720F92B831C82AB81BC818A2B81
:101580009B2B892B09F463C0311061C0E8E6F0E0C1
:1015900080818D7F8083C114D104E104F10421F4A2
:1015A0000E94D60F6B017C016D817E818F819885B1
:1015B0006C197D098E099F09653FF1E07F07810560
:1015C000910508F4DEC128EC30E040E050E00E94D4
:1015D0000910672B682B692B09F0D3C11B9B0AC02C
:1015E0002B85223038F40E946A070E94320231E0D3
:1015F0003B87C7C1189B0BC08B858D7F09F0BBC192
:101600000E9483070E94320242E04B87BAC11A9BB4
:101610000EC05B85552321F08B85833009F0AEC168
:101620000E9415070E94320293E09B87AAC1199B72
:10163000A8C1AB85AA2321F0BB85B43009F0A1C1B4
:101640000E9451070E943202E4E0EB879AC1A8E6AB
:10165000B0E08C9182608C930E94B201082F0E94AE
:10166000D401182F802F812B09F476C0311099C135
:101670002B86C12CD12CE12CF12C41145104610496
:10168000710421F40E94D60F2B013C012D813E8173
:101690004F81588524193509460957092D873E87FA
:1016A0004F87588B39853323C1F08D859E85AF8553
:1016B000B889853FE1E09E07A105B10508F49BC10B
:1016C000BC01CD0128EC30E040E050E00E94091060
:1016D000672B682B692B09F05FC1013039F40E9438
:1016E00015070E943202F1E0F98708C00F3F31F47C
:1016F0000E9451070E94320221E029873A85332354
:10170000C1F08D859E85AF85B889853FE1E09E0754
:10171000A105B10508F453C1BC01CD0128EC30E0AE
:1017200040E050E00E940910672B682B692B09F0FC
:1017300046C1113039F40E9483070E943202F1E061
:10174000FA873DC11F3F09F03AC10E946A070E9413
:10175000320221E02A8733C12B86C12CD12CE12C07
:10176000F12C0E94AE078111B5C03110BAC02A8693
:101770002986412C512C612C712C06C02A86298681
:10178000412C512C612C712C10919A014CE9410390
:1017900090011124245B3B4F032E000C440B550B8E
:1017A0006D817E818F8198850E940910672B682B3F
:1017B000692B59F410FF05C061E0822D0E94B70724
:1017C00004C06FEF822D0E94B70710919A015CE967
:1017D00051039001112428513C4F032E000C440B5F
:1017E000550B6D817E818F8198850E940910672B32
:1017F000682B692B59F410FF05C06FEF81E00E9440
:10180000B70704C061E081E00E94B70710919A0118
:101810004CE94103900111242C573C4F032E000C3E
:10182000440B550B6D817E818F8198850E94091034
:10183000672B682B692B59F410FF05C061E082E02B
:101840000E94B70704C06FEF82E00E94B7071091B3
:101850009A015CE95103900111242C5E3A4F032E4A
:10186000000C440B550B6D817E818F8198850E9401
:101870000910672B682B692B59F410FF05C061E034
:10188000822D0E94F00704C06FEF822D0E94F007A6
:1018900010919A014CE941039001112420553B4FCE
:1018A000032E000C440B550B6D817E818F81988532
:1018B0000E940910672B682B692BC9F410FF05C023
:1018C0006FEF81E00E94F00712C061E081E00E94AA
:1018D000F0070DC02A862986412C512C612C712CD1
:1018E00006C02A862986412C512C612C712C0E941D
:1018F0000C0481110E94B1070E94AE07882359F1A0
:101900000E94390280919B01815080939B010E942B
:10191000740981E00E94FD03A8E6B0E08C918D7F00
:101920008C93BFEFE3EDF0E3B150E040F040E1F71E
:1019300000C000000E94DC0EA8E6B0E08C9182603E
:101940008C9380919B01882331F00E94F10684E101
:1019500090E00E94EC030E94AE07882309F43FCD7B
:101960005BC0B1E0BC87E8CDE2E0EC87E5CD833039
:1019700009F4ACCD2FC01A994FCE59CE19995CCE2F
:101980002FC00E94B201082F0E94D401182F802F6F
:10199000812B09F072CE34C0FA85FF2309F4C9CE39
:1019A0000EC00E94AE072A8629862B86412C512C18
:1019B000612C712CC12CD12CE12CF12C98CF0E94E0
:1019C000AE07882309F4E0CE92CF913409F489CD93
:1019D0002C8683CD823009F485CD9FEF8FEF7DCDAE
:1019E0000E94B201082F0E94D401182F802F812B52
:1019F00009F043CEB6CE2A85222309F49ACEDFCF52
:101A00000E94AE07882309F4B9CE2A862986412C84
:101A1000512C612C712C6BCF60960FB6F894DEBF01
:101A20000FBECDBFDF91CF911F910F91FF90EF902F
:101A3000DF90CF90BF90AF909F908F907F906F90EE
:101A40005F904F903F902F9008950E94C5080E948C
:101A5000E0080E94AC090E94C4090E941909F9CF4C
:101A600010929C0110929D0110929E0110929F0174
:101A7000089540919C0150919D0160919E0170914B
:101A80009F01480F591F611D711D40939C01509388
:101A90009D0160939E0170939F01089560919C0148
:101AA00070919D0180919E0190919F010895609396
:101AB0001101909386018093850110928801109204
:101AC0008701109284011092830108950F931F9350
:101AD000CF93DF93CDB7DEB728970FB6F894DEBF6C
:101AE0000FBECDBFE0918701F0918801309781F062
:101AF000149110FF06C0109288011092870100E037
:101B00006BC03196F0938801E093870100E064C0D8
:101B1000E0918301F0918401309709F449C0CF012D
:101B200001969093840180938301E081E1110AC0C2
:101B3000109284011092830180E18093820100E081
:101B400010E04AC08FE98E0F8A3170F4F0E0EE0F9A
:101B5000FF1FEF59FF4F85919491909388018093D7
:101B6000870100E010E038C08FEB8E0F8A3170F4EF
:101B7000F0E0EE0FFF1FEF55FF4F8591949190938A
:101B800088018093870100E010E026C080ED8E0F71
:101B90008A3000F5F0E0EE0FFF1FE155FF4F859111
:101BA0009491909388018093870100E010E014C025
:101BB000809185019091860101E0009709F000E095
:101BC0009093840180938301109286011092850185
:101BD00010E002C000E010E00E94BA08209111015C
:101BE000FE013896CE010196112314F4208301C022
:101BF0001082110F3197E817F907B1F71982BE016A
:101C00006F5F7F4F8FE00E949D0880918201882343
:101C100089F0815080938201002311F0882311F014
:101C200090E003C091E001C091E081E0992329F0A8
:101C300080E003C00023A1F3F7CF28960FB6F894F5
:101C4000DEBF0FBECDBFDF91CF911F910F910895E1
:101C5000CF93C82F8A3019F48DE00E94280E9FB7C9
:101C6000907802C0992329F18091A1018F3FD1F38F
:101C7000F894E091A00181E08E0F8093A001F0E044
:101C8000EE55FE4FC0838091A1018F5F8093A1012B
:101C90008091A0018F3F11F41092A001E1ECF0E0DF
:101CA000808180628083992339F0789480E090E08D
:101CB00005C081E090E002C080E090E0CF910895FF
:101CC0008091B3028823E1F32FB72078F8948091B4
:101CD000A1023091B30290E0831B91095AF4E09184
:101CE000A1028091B302F0E0E81BF109EE54FD4F30
:101CF00080810AC0E091A1028091B302F0E0E81B6C
:101D0000F109EE55FD4F80819091B302915090936F
:101D1000B302222309F0789490E008951092A00174
:101D20001092A1011092A1021092B3021092B2027D
:101D300040938901DC01CB01880F991FAA1FBB1FAB
:101D4000880F991FAA1FBB1F9C01AD01220F331FD3
:101D5000441F551F60E072E18AE790E00E942B105B
:101D6000BA01A9014F5F5F4F6F4F7F4FDB01CA017F
:101D70001AF40196A11DB11DB595A7959795879564
:101D800001979093C5008093C400E1ECF0E088E1F6
:101D90008083808180688083E4EBF2E082E191E0DF
:101DA000938382839183808308959091B30281E02D
:101DB000911101C080E008951092A1021092B30227
:101DC00008951F920F920FB60F9211242F938F93A5
:101DD0009F93EF93FF938091A101882329F1809134
:101DE000A0012091A10190E0821B91095AF4E09199
:101DF000A0018091A101F0E0E81BF109EF55FD4F32
:101E000090810AC0E091A0018091A101F0E0E81B5F
:101E1000F109EE55FE4F90818091A1018150809390
:101E2000A1019093C60005C0E1ECF0E080818F7DB8
:101E30008083FF91EF919F918F912F910F900FBE13
:101E40000F901F9018951F920F920FB60F921124AA
:101E50002F933F934F935F936F937F938F939F93B2
:101E6000AF93BF93CF93EF93FF93C091C600809140
:101E70008901882349F08091A1018F3F29F060E01A
:101E800070E08C2F0E94280E8091B302803120F0E8
:101E900081E08093B20218C0CD3009F4CAE0E0912D
:101EA000A10281E08E0F8093A102F0E0EE55FD4F7C
:101EB000C0838091B3028F5F8093B3028091A102AF
:101EC000803111F41092A102FF91EF91CF91BF9157
:101ED000AF919F918F917F916F915F914F913F91C2
:101EE0002F910F900FBE0F901F90189594B1906B8B
:101EF00094B92C9A90E59CBD883021F0803211F085
:101F0000823019F491E09DBD01C01DBC803269F0A2
:101F100028F4883071F0803161F00EC0803429F0EF
:101F2000803851F48CB581608CBD8CB582608CBDDD
:101F300003C08CB581608CBD2C9808958EBD0DB406
:101F400007FEFDCF8EB508959F938F937F936F9378
:101F500082EF91E09F938F930E94C7100F900F9094
:101F60000F900F900F900F9008958DEE91E09F933A
:101F70008F930E94C7100F900F90089510928A01BE
:101F800010928B0110928C0110928D0116BC8CE77F
:101F900087BD82E084BD83E085BDEEE6F0E0808110
:101FA0008260808385B3827085BB08952FB7F894D3
:101FB00060918A0170918B0180918C0190918D01CB
:101FC00022230CF4789408951F920F920FB60F926B
:101FD00011248F939F93AF93BF9380918A01909127
:101FE0008B01A0918C01B0918D010196A11DB11DB5
:101FF00080938A0190938B01A0938C01B0938D0103
:10200000BF91AF919F918F910F900FBE0F901F9036
:102010001895A1E21A2EAA1BBB1BFD010DC0AA1F19
:10202000BB1FEE1FFF1FA217B307E407F50720F041
:10203000A21BB30BE40BF50B661F771F881F991FBC
:102040001A9469F760957095809590959B01AC0105
:10205000BD01CF010895052E97FB1EF400940E9448
:10206000421057FD07D00E94091007FC03D04EF420
:102070000C94421050954095309521953F4F4F4F0D
:102080005F4F089590958095709561957F4F8F4F24
:102090009F4F0895EE0FFF1F0590F491E02D0994D6
:1020A000A29FB001B39FC001A39F700D811D112499
:1020B000911DB29F700D811D1124911D089597FBF4
:1020C00010F8169400080F93083098F00850232F4A
:1020D000342F452F562F672F782F892F902DF4CF2F
:1020E0000594979587957795679557954795379573
:1020F00027950A95AAF70F9108950024A7FD00944B
:102100002A173005400550056005700580059005CB
:102110000895CF93DF93EC012B8120FF33C026FF7E
:102120000AC02F7B2B838E819F8101969F838E8394
:102130008A8190E029C022FF0FC0E881F981808167
:10214000082E000C990B009719F420622B831AC0FB
:102150003196F983E8830EC0EA85FB85099597FFE0
:1021600009C02B81019611F080E201C080E1822B31
:102170008B8308C02E813F812F5F3F4F3F832E838B
:10218000992702C08FEF9FEFDF91CF910895A0E0D4
:10219000B0E0EDECF0E10C948C13AE01495F5F4FC1
:1021A000DA016D917D91AD0104EB12E0F8018281BD
:1021B0009381DC0113962C911397286013962C932E
:1021C0000E94ED10D8011296ED91FC911397238196
:1021D000277F2383E4E00C94A813ABE0B0E0E3EFA7
:1021E000F0E10C947E136C017B018A01FC011782E3
:1021F0001682838181FFCCC1CE0101963C01F6019C
:102200009381F70193FD859193FF81917F0188234D
:1022100009F4BAC1853239F493FD859193FF819118
:102220007F01853229F4B60190E00E94E412E7CFE5
:10223000912C212C312CFFE1F315D8F08B3279F061
:1022400038F4803279F08332A1F4232D20611DC04F
:102250008D3261F0803369F4232D216016C0832D07
:102260008260382EE32DE4603E2E2AC0F32DF86004
:102270001DC037FC2DC020ED280F2A3040F08E32D3
:10228000B9F436FC81C1232D2064322E19C036FEEC
:1022900006C08AE0989E200D1124922E11C0EAE01B
:1022A0002E9E200D1124222EF32DF0623F2E08C009
:1022B0008C3621F4832D8068382E02C0883641F494
:1022C000F70193FD859193FF81917F018111B3CF38
:1022D000982F9F7D9554933028F40C5F1F4F9FE3F8
:1022E00099830DC0833631F0833771F0833509F05F
:1022F00059C021C0F801808189830E5F1F4F882457
:102300008394912C530113C02801F2E04F0E511C0D
:10231000F801A080B18036FE03C0692D70E002C0D4
:102320006FEF7FEFC5010E94D9124C018201F32D9E
:10233000FF773F2E16C0280122E0420E511CF80103
:10234000A080B18036FE03C0692D70E002C06FEF3F
:102350007FEFC5010E94CE124C01F32DF0683F2E95
:10236000820133FC1BC0822D90E088169906B0F4E0
:10237000B60180E290E00E94E4122A94F4CFF501C5
:1023800037FC859137FE81915F01B60190E00E9494
:10239000E41221102A9421E0821A910881149104F8
:1023A00071F7E8C0843611F0893641F5F80137FE3F
:1023B00007C060817181828193810C5F1F4F08C0CB
:1023C00060817181072E000C880B990B0E5F1F4FE7
:1023D000F32DFF763F2E97FF09C09095809570955D
:1023E00061957F4F8F4F9F4FF0683F2E2AE030E07E
:1023F000A3010E942013882E861845C0853731F42A
:10240000232D2F7EB22E2AE030E025C0932D997F18
:10241000B92E8F36C1F018F4883579F0B5C0803701
:1024200019F0883721F0B0C0E92FE061BE2EB4FE6C
:102430000DC0FB2DF460BF2E09C034FE0AC0292F49
:102440002660B22E06C028E030E005C020E130E072
:1024500002C020E132E0F801B7FE07C0608171815F
:10246000828193810C5F1F4F06C06081718180E083
:1024700090E00E5F1F4FA3010E942013882E861844
:10248000FB2DFF773F2E36FE0DC0232D2E7FA22E73
:10249000891458F434FE0BC032FC09C0832D8E7EA3
:1024A000A82E05C0B82CA32C03C0B82C01C0B92C91
:1024B000A4FE0FC0FE01E80DF11D8081803321F4E0
:1024C0009A2D997EA92E09C0A2FE06C0B394B3949A
:1024D00004C08A2D867809F0B394A3FC11C0A0FE35
:1024E00006C0B21488F4280C922C9B180EC0B214AB
:1024F00060F4B60180E290E00E94E412B394F7CF5A
:10250000B21418F42B1802C0982C212CA4FE10C071
:10251000B60180E390E00E94E412A2FE17C0A1FC85
:1025200003C088E790E002C088E590E0B6010CC0E7
:102530008A2D867859F0A1FE02C08BE201C080E2AC
:10254000A7FC8DE2B60190E00E94E412891438F4F1
:10255000B60180E390E00E94E4129A94F7CF8A9447
:10256000F301E80DF11D8081B60190E00E94E412B4
:102570008110F5CF222009F442CEB60180E290E02E
:102580000E94E4122A94F6CFF6018681978102C058
:102590008FEF9FEF2B96E2E10C949A13FC010590CC
:1025A000615070400110D8F7809590958E0F9F1F55
:1025B0000895FC016150704001900110D8F780959A
:1025C00090958E0F9F1F08950F931F93CF93DF93C6
:1025D000FB01238121FD03C08FEF9FEF2CC022FF61
:1025E00016C046815781248135814217530744F430
:1025F000A081B1819D012F5F3F4F318320838C9358
:10260000268137812F5F3F4F3783268314C08B018C
:10261000EC01FB010084F185E02D0995892BE1F6A1
:10262000D80116968D919C911797019617969C93B9
:102630008E931697CE01DF91CF911F910F91089540
:10264000FA01AA27283051F1203181F1E8946F93E3
:102650006E7F6E5F7F4F8F4F9F4FAF4FB1E03ED089
:10266000B4E03CD0670F781F891F9A1FA11D680F27
:10267000791F8A1F911DA11D6A0F711D811D911D5A
:10268000A11D20D009F468943F912AE0269F1124CF
:102690003019305D3193DEF6CF010895462F477033
:1026A000405D4193B3E00FD0C9F7F6CF462F4F708E
:1026B000405D4A3318F0495D31FD4052419302D0EC
:1026C000A9F7EACFB4E0A695979587957795679592
:1026D000BA95C9F700976105710508959B01AC0192
:1026E0000A2E06945795479537952795BA95C9F7B9
:1026F000620F731F841F951FA01D08952F923F9294
:102700004F925F926F927F928F929F92AF92BF9201
:10271000CF92DF92EF92FF920F931F93CF93DF93AD
:10272000CDB7DEB7CA1BDB0B0FB6F894DEBF0FBE0A
:10273000CDBF09942A88398848885F846E847D8457
:102740008C849B84AA84B984C884DF80EE80FD8059
:102750000C811B81AA81B981CE0FD11D0FB6F894CF
:0E276000DEBF0FBECDBFED010895F894FFCF90
:10276E003F065B4F666D7D077F6F0FDF0F00010326
:10277E00070F0000000300000000280E600E00008E
:10278E00FFFDDFEFB7FBEBDD75AF556DAAAA0000BD
:10279E00F8789CF19C1DF6E698C118C398C118C331
:1027AE001C0EC7E170703838C7C3070F0F0F0F0F1D
:1027BE0046524F4747455220343439303736333539
:0C27CE000047414D45204F564552000089
:00000001FF
